{
  "contractName": "Blogs",
  "abi": [
    {
      "constant": true,
      "inputs": [
        {
          "name": "",
          "type": "uint256"
        }
      ],
      "name": "support",
      "outputs": [
        {
          "name": "",
          "type": "uint256"
        }
      ],
      "payable": false,
      "stateMutability": "view",
      "type": "function"
    },
    {
      "constant": true,
      "inputs": [
        {
          "name": "",
          "type": "uint256"
        }
      ],
      "name": "blogs",
      "outputs": [
        {
          "name": "blogger",
          "type": "address"
        },
        {
          "name": "data",
          "type": "string"
        }
      ],
      "payable": false,
      "stateMutability": "view",
      "type": "function"
    },
    {
      "anonymous": false,
      "inputs": [
        {
          "indexed": false,
          "name": "blog_id",
          "type": "uint256"
        },
        {
          "indexed": false,
          "name": "blogger",
          "type": "address"
        },
        {
          "indexed": false,
          "name": "data",
          "type": "string"
        }
      ],
      "name": "BlogCreated",
      "type": "event"
    },
    {
      "anonymous": false,
      "inputs": [
        {
          "indexed": false,
          "name": "blog_id",
          "type": "uint256"
        },
        {
          "indexed": false,
          "name": "sender",
          "type": "address"
        },
        {
          "indexed": false,
          "name": "receiver",
          "type": "address"
        },
        {
          "indexed": false,
          "name": "amount",
          "type": "uint256"
        }
      ],
      "name": "CoffeBought",
      "type": "event"
    },
    {
      "constant": false,
      "inputs": [
        {
          "name": "_data",
          "type": "string"
        }
      ],
      "name": "createBlog",
      "outputs": [
        {
          "name": "",
          "type": "uint256"
        }
      ],
      "payable": false,
      "stateMutability": "nonpayable",
      "type": "function"
    },
    {
      "constant": false,
      "inputs": [
        {
          "name": "_blogId",
          "type": "uint256"
        }
      ],
      "name": "buyCoffee",
      "outputs": [],
      "payable": true,
      "stateMutability": "payable",
      "type": "function"
    }
  ],
  "bytecode": "0x608060405234801561001057600080fd5b506107eb806100206000396000f3fe60806040526004361061003f5760003560e01c806356c9493f14610044578063706936d41461009357806380f052d81461012d578063b03b4a2914610214575b600080fd5b34801561005057600080fd5b5061007d6004803603602081101561006757600080fd5b8101908080359060200190929190505050610242565b6040518082815260200191505060405180910390f35b34801561009f57600080fd5b50610117600480360360208110156100b657600080fd5b81019080803590602001906401000000008111156100d357600080fd5b8201836020820111156100e557600080fd5b8035906020019184600183028401116401000000008311171561010757600080fd5b909192939192939050505061025a565b6040518082815260200191505060405180910390f35b34801561013957600080fd5b506101666004803603602081101561015057600080fd5b810190808035906020019092919050505061040b565b604051808373ffffffffffffffffffffffffffffffffffffffff1673ffffffffffffffffffffffffffffffffffffffff16815260200180602001828103825283818151815260200191508051906020019080838360005b838110156101d85780820151818401526020810190506101bd565b50505050905090810190601f1680156102055780820380516001836020036101000a031916815260200191505b50935050505060405180910390f35b6102406004803603602081101561022a57600080fd5b81019080803590602001909291905050506104f4565b005b60016020528060005260406000206000915090505481565b60008060405180604001604052803373ffffffffffffffffffffffffffffffffffffffff16815260200185858080601f016020809104026020016040519081016040528093929190818152602001838380828437600081840152601f19601f820116905080830192505050505050508152509080600181540180825580915050906001820390600052602060002090600202016000909192909190915060008201518160000160006101000a81548173ffffffffffffffffffffffffffffffffffffffff021916908373ffffffffffffffffffffffffffffffffffffffff160217905550602082015181600101908051906020019061035a92919061071a565b505050507fee898d74f90297ab3f526a0f5932b9db775f60d59a61df341278a5854c8d8156600160008054905003338585604051808581526020018473ffffffffffffffffffffffffffffffffffffffff1673ffffffffffffffffffffffffffffffffffffffff168152602001806020018281038252848482818152602001925080828437600081840152601f19601f8201169050808301925050509550505050505060405180910390a192915050565b6000818154811061041857fe5b90600052602060002090600202016000915090508060000160009054906101000a900473ffffffffffffffffffffffffffffffffffffffff1690806001018054600181600116156101000203166002900480601f0160208091040260200160405190810160405280929190818152602001828054600181600116156101000203166002900480156104ea5780601f106104bf576101008083540402835291602001916104ea565b820191906000526020600020905b8154815290600101906020018083116104cd57829003601f168201915b5050505050905082565b6000341161050157600080fd5b806000818154811061050f57fe5b906000526020600020906002020160000160009054906101000a900473ffffffffffffffffffffffffffffffffffffffff1673ffffffffffffffffffffffffffffffffffffffff163373ffffffffffffffffffffffffffffffffffffffff16141561057957600080fd5b6000828154811061058657fe5b906000526020600020906002020160000160009054906101000a900473ffffffffffffffffffffffffffffffffffffffff1673ffffffffffffffffffffffffffffffffffffffff166108fc349081150290604051600060405180830381858888f193505050501580156105fd573d6000803e3d6000fd5b5060003460016000858152602001908152602001600020540190508060016000858152602001908152602001600020819055507f4da96a9ec6c62f416ed8e3f3d0589854efdebb6e96606ec4ab26475be2362ebf83336000868154811061066057fe5b906000526020600020906002020160000160009054906101000a900473ffffffffffffffffffffffffffffffffffffffff1634604051808581526020018473ffffffffffffffffffffffffffffffffffffffff1673ffffffffffffffffffffffffffffffffffffffff1681526020018373ffffffffffffffffffffffffffffffffffffffff1673ffffffffffffffffffffffffffffffffffffffff16815260200182815260200194505050505060405180910390a1505050565b828054600181600116156101000203166002900490600052602060002090601f016020900481019282601f1061075b57805160ff1916838001178555610789565b82800160010185558215610789579182015b8281111561078857825182559160200191906001019061076d565b5b509050610796919061079a565b5090565b6107bc91905b808211156107b85760008160009055506001016107a0565b5090565b9056fea165627a7a7230582041144f315d740cb09bd328c22e08a372b2e4aacfbeac4adc85db775cc14c4fde0029",
  "source": "pragma solidity ^0.5.0;\r\n\r\n/**\r\n * @title Blogchain\r\n * @author Mohamad Alkhaldi\r\n */\r\ncontract Blogs {\r\n/// @dev A smart contract which allows bloggers to post blogs on the chain and recieve support from readers, in ether\r\n\r\n  /*\r\n  * Storage\r\n  */\r\n\r\n  Blog[] public blogs;\r\n\r\n  /// @dev mapping between blog Id and the amount of support it's generated\r\n  mapping (uint=>uint) public support;\r\n\r\n  /*\r\n  * Structs\r\n  */\r\n\r\n  struct Blog {\r\n      address payable blogger;\r\n      string data;\r\n  }\r\n\r\n  /**\r\n  * @dev createBlog(): creates a blog\r\n  * @param _data the contents of the blog, in our case it will be an IPFS reference to the blog content\r\n  */\r\n  function createBlog(\r\n      string calldata _data\r\n  )\r\n      external\r\n      returns (uint)\r\n  {\r\n      blogs.push(Blog(msg.sender, _data));\r\n      emit BlogCreated(blogs.length - 1, msg.sender, _data);\r\n    //   return (blogs.length - 1);\r\n  }\r\n  \r\n  /**\r\n  * @dev buyCoffee(): Sends ether to blog's writer\r\n  * @param _blogId the blog which the reader want support\r\n  */\r\n  function  buyCoffee(\r\n      uint _blogId\r\n      )\r\n      external\r\n      payable\r\n      hasValue()\r\n      notOwner(_blogId)\r\n      {\r\n          blogs[_blogId].blogger.transfer(msg.value);\r\n          uint totalSupport = support[_blogId] + msg.value;\r\n          support[_blogId] = totalSupport;\r\n          emit CoffeBought(_blogId, msg.sender, blogs[_blogId].blogger, msg.value);\r\n      }\r\n\r\n  /**\r\n  * Modifiers\r\n  */\r\n\r\n  modifier hasValue() {\r\n      require(msg.value > 0);\r\n      _;\r\n  }\r\n\r\n  modifier notOwner(uint _blogId) {\r\n      require(msg.sender != blogs[_blogId].blogger);\r\n      _;\r\n  }\r\n\r\n  /**\r\n  * Events\r\n  */\r\n  event BlogCreated(uint blog_id, address blogger, string data);\r\n  event CoffeBought(uint blog_id, address sender, address receiver, uint amount);\r\n\r\n}",
  "sourcePath": "/mnt/c/Users/HP/crytpoCamp/ffinal/contracts/Blogs.sol",
  "compiler": {
    "name": "solc",
    "version": "0.5.8+commit.23d335f2.Emscripten.clang"
  },
  "schemaVersion": "3.0.11",
  "updatedAt": "2019-07-31T11:16:27.950Z",
  "devdoc": {
    "author": "Mohamad Alkhaldi\r",
    "methods": {
      "buyCoffee(uint256)": {
        "details": "buyCoffee(): Sends ether to blog's writer\r",
        "params": {
          "_blogId": "the blog which the reader want support\r"
        }
      },
      "createBlog(string)": {
        "details": "createBlog(): creates a blog\r",
        "params": {
          "_data": "the contents of the blog, in our case it will be an IPFS reference to the blog content\r"
        }
      }
    },
    "title": "Blogchain\r"
  },
  "userdoc": {
    "methods": {}
  }
}