{
  "contractName": "Blogs",
  "abi": [
    {
      "constant": true,
      "inputs": [
        {
          "name": "",
          "type": "uint256"
        }
      ],
      "name": "support",
      "outputs": [
        {
          "name": "",
          "type": "uint256"
        }
      ],
      "payable": false,
      "stateMutability": "view",
      "type": "function"
    },
    {
      "constant": true,
      "inputs": [
        {
          "name": "",
          "type": "uint256"
        }
      ],
      "name": "blogs",
      "outputs": [
        {
          "name": "blogger",
          "type": "address"
        },
        {
          "name": "data",
          "type": "string"
        }
      ],
      "payable": false,
      "stateMutability": "view",
      "type": "function"
    },
    {
      "anonymous": false,
      "inputs": [
        {
          "indexed": false,
          "name": "blog_id",
          "type": "uint256"
        },
        {
          "indexed": false,
          "name": "blogger",
          "type": "address"
        },
        {
          "indexed": false,
          "name": "data",
          "type": "string"
        }
      ],
      "name": "BlogCreated",
      "type": "event"
    },
    {
      "anonymous": false,
      "inputs": [
        {
          "indexed": false,
          "name": "blog_id",
          "type": "uint256"
        },
        {
          "indexed": false,
          "name": "sender",
          "type": "address"
        },
        {
          "indexed": false,
          "name": "receiver",
          "type": "address"
        },
        {
          "indexed": false,
          "name": "amount",
          "type": "uint256"
        }
      ],
      "name": "CoffeBought",
      "type": "event"
    },
    {
      "constant": false,
      "inputs": [
        {
          "name": "_data",
          "type": "string"
        }
      ],
      "name": "createBlog",
      "outputs": [
        {
          "name": "",
          "type": "uint256"
        }
      ],
      "payable": false,
      "stateMutability": "nonpayable",
      "type": "function"
    },
    {
      "constant": true,
      "inputs": [
        {
          "name": "_blogId",
          "type": "uint256"
        }
      ],
      "name": "getBlogById",
      "outputs": [
        {
          "name": "",
          "type": "string"
        }
      ],
      "payable": false,
      "stateMutability": "view",
      "type": "function"
    },
    {
      "constant": false,
      "inputs": [
        {
          "name": "_blogId",
          "type": "uint256"
        }
      ],
      "name": "buyCoffee",
      "outputs": [],
      "payable": true,
      "stateMutability": "payable",
      "type": "function"
    }
  ],
  "bytecode": "0x608060405234801561001057600080fd5b5061097a806100206000396000f3fe60806040526004361061004a5760003560e01c806356c9493f1461004f578063706936d41461009e57806380f052d8146101385780639669b2da1461021f578063b03b4a29146102d3575b600080fd5b34801561005b57600080fd5b506100886004803603602081101561007257600080fd5b8101908080359060200190929190505050610301565b6040518082815260200191505060405180910390f35b3480156100aa57600080fd5b50610122600480360360208110156100c157600080fd5b81019080803590602001906401000000008111156100de57600080fd5b8201836020820111156100f057600080fd5b8035906020019184600183028401116401000000008311171561011257600080fd5b9091929391929390505050610319565b6040518082815260200191505060405180910390f35b34801561014457600080fd5b506101716004803603602081101561015b57600080fd5b81019080803590602001909291905050506104d5565b604051808373ffffffffffffffffffffffffffffffffffffffff1673ffffffffffffffffffffffffffffffffffffffff16815260200180602001828103825283818151815260200191508051906020019080838360005b838110156101e35780820151818401526020810190506101c8565b50505050905090810190601f1680156102105780820380516001836020036101000a031916815260200191505b50935050505060405180910390f35b34801561022b57600080fd5b506102586004803603602081101561024257600080fd5b81019080803590602001909291905050506105be565b6040518080602001828103825283818151815260200191508051906020019080838360005b8381101561029857808201518184015260208101905061027d565b50505050905090810190601f1680156102c55780820380516001836020036101000a031916815260200191505b509250505060405180910390f35b6102ff600480360360208110156102e957600080fd5b8101908080359060200190929190505050610683565b005b60016020528060005260406000206000915090505481565b60008060405180604001604052803373ffffffffffffffffffffffffffffffffffffffff16815260200185858080601f016020809104026020016040519081016040528093929190818152602001838380828437600081840152601f19601f820116905080830192505050505050508152509080600181540180825580915050906001820390600052602060002090600202016000909192909190915060008201518160000160006101000a81548173ffffffffffffffffffffffffffffffffffffffff021916908373ffffffffffffffffffffffffffffffffffffffff16021790555060208201518160010190805190602001906104199291906108a9565b505050507fee898d74f90297ab3f526a0f5932b9db775f60d59a61df341278a5854c8d8156600160008054905003338585604051808581526020018473ffffffffffffffffffffffffffffffffffffffff1673ffffffffffffffffffffffffffffffffffffffff168152602001806020018281038252848482818152602001925080828437600081840152601f19601f8201169050808301925050509550505050505060405180910390a1600160008054905003905092915050565b600081815481106104e257fe5b90600052602060002090600202016000915090508060000160009054906101000a900473ffffffffffffffffffffffffffffffffffffffff1690806001018054600181600116156101000203166002900480601f0160208091040260200160405190810160405280929190818152602001828054600181600116156101000203166002900480156105b45780601f10610589576101008083540402835291602001916105b4565b820191906000526020600020905b81548152906001019060200180831161059757829003601f168201915b5050505050905082565b606060008083815481106105ce57fe5b90600052602060002090600202016001019050808054600181600116156101000203166002900480601f0160208091040260200160405190810160405280929190818152602001828054600181600116156101000203166002900480156106765780601f1061064b57610100808354040283529160200191610676565b820191906000526020600020905b81548152906001019060200180831161065957829003601f168201915b5050505050915050919050565b6000341161069057600080fd5b806000818154811061069e57fe5b906000526020600020906002020160000160009054906101000a900473ffffffffffffffffffffffffffffffffffffffff1673ffffffffffffffffffffffffffffffffffffffff163373ffffffffffffffffffffffffffffffffffffffff16141561070857600080fd5b6000828154811061071557fe5b906000526020600020906002020160000160009054906101000a900473ffffffffffffffffffffffffffffffffffffffff1673ffffffffffffffffffffffffffffffffffffffff166108fc349081150290604051600060405180830381858888f1935050505015801561078c573d6000803e3d6000fd5b5060003460016000858152602001908152602001600020540190508060016000858152602001908152602001600020819055507f4da96a9ec6c62f416ed8e3f3d0589854efdebb6e96606ec4ab26475be2362ebf8333600086815481106107ef57fe5b906000526020600020906002020160000160009054906101000a900473ffffffffffffffffffffffffffffffffffffffff1634604051808581526020018473ffffffffffffffffffffffffffffffffffffffff1673ffffffffffffffffffffffffffffffffffffffff1681526020018373ffffffffffffffffffffffffffffffffffffffff1673ffffffffffffffffffffffffffffffffffffffff16815260200182815260200194505050505060405180910390a1505050565b828054600181600116156101000203166002900490600052602060002090601f016020900481019282601f106108ea57805160ff1916838001178555610918565b82800160010185558215610918579182015b828111156109175782518255916020019190600101906108fc565b5b5090506109259190610929565b5090565b61094b91905b8082111561094757600081600090555060010161092f565b5090565b9056fea165627a7a7230582091098c595b2a84b59e0642068a89cbddee16940871a4548c6a768ddb215ca6e90029",
  "source": "pragma solidity ^0.5.0;\r\n\r\n/**\r\n * @title Blogchain\r\n * @author Mohamad Alkhaldi\r\n */\r\ncontract Blogs {\r\n/// @dev A smart contract which allows bloggers to post blogs on the chain and recieve support from readers, in ether\r\n\r\n  /*\r\n  * Storage\r\n  */\r\n\r\n  Blog[] public blogs;\r\n\r\n  /// @dev mapping between blog Id and the amount of support it's generated\r\n  mapping (uint=>uint) public support;\r\n\r\n  /*\r\n  * Structs\r\n  */\r\n\r\n  struct Blog {\r\n      address payable blogger;\r\n      string data;\r\n  }\r\n\r\n  /**\r\n  * @dev createBlog(): creates a blog\r\n  * @param _data the contents of the blog, in our case it will be an IPFS reference to the blog content\r\n  */\r\n  function createBlog(\r\n      string calldata _data\r\n  )\r\n      external\r\n      returns (uint)\r\n  {\r\n      blogs.push(Blog(msg.sender, _data));\r\n      emit BlogCreated(blogs.length - 1, msg.sender, _data);\r\n      return (blogs.length - 1);\r\n  }\r\n  \r\n  /**\r\n  * @dev getBlogById(): get blog by id, only used in testing\r\n  * @param _blogId blog id (index) in the blogs array\r\n  */\r\n  function getBlogById(\r\n      uint _blogId\r\n  )\r\n      external\r\n      view\r\n      returns (string memory)\r\n  {\r\n      string storage content = blogs[_blogId].data;\r\n      return (content);\r\n  }\r\n  \r\n  /**\r\n  * @dev buyCoffee(): Sends ether to blog's writer\r\n  * @param _blogId the blog which the reader want support\r\n  */\r\n  function  buyCoffee(\r\n      uint _blogId\r\n      )\r\n      external\r\n      payable\r\n      hasValue()\r\n      notOwner(_blogId)\r\n      {\r\n          blogs[_blogId].blogger.transfer(msg.value);\r\n          uint totalSupport = support[_blogId] + msg.value;\r\n          support[_blogId] = totalSupport;\r\n          emit CoffeBought(_blogId, msg.sender, blogs[_blogId].blogger, msg.value);\r\n      }\r\n\r\n  /**\r\n  * Modifiers\r\n  */\r\n\r\n  modifier hasValue() {\r\n      require(msg.value > 0);\r\n      _;\r\n  }\r\n\r\n  modifier notOwner(uint _blogId) {\r\n      require(msg.sender != blogs[_blogId].blogger);\r\n      _;\r\n  }\r\n\r\n  /**\r\n  * Events\r\n  */\r\n  event BlogCreated(uint blog_id, address blogger, string data);\r\n  event CoffeBought(uint blog_id, address sender, address receiver, uint amount);\r\n\r\n}",
  "sourcePath": "/mnt/c/Users/HP/crytpoCamp/ffinal/contracts/Blogs.sol",
  "compiler": {
    "name": "solc",
    "version": "0.5.8+commit.23d335f2.Emscripten.clang"
  },
  "schemaVersion": "3.0.11",
  "updatedAt": "2019-07-31T14:15:26.323Z",
  "devdoc": {
    "author": "Mohamad Alkhaldi\r",
    "methods": {
      "buyCoffee(uint256)": {
        "details": "buyCoffee(): Sends ether to blog's writer\r",
        "params": {
          "_blogId": "the blog which the reader want support\r"
        }
      },
      "createBlog(string)": {
        "details": "createBlog(): creates a blog\r",
        "params": {
          "_data": "the contents of the blog, in our case it will be an IPFS reference to the blog content\r"
        }
      },
      "getBlogById(uint256)": {
        "details": "getBlogById(): get blog by id, only used in testing\r",
        "params": {
          "_blogId": "blog id (index) in the blogs array\r"
        }
      }
    },
    "title": "Blogchain\r"
  },
  "userdoc": {
    "methods": {}
  }
}