{
  "contractName": "Blogs",
  "abi": [
    {
      "constant": true,
      "inputs": [
        {
          "name": "",
          "type": "uint256"
        }
      ],
      "name": "support",
      "outputs": [
        {
          "name": "",
          "type": "uint256"
        }
      ],
      "payable": false,
      "stateMutability": "view",
      "type": "function"
    },
    {
      "constant": true,
      "inputs": [
        {
          "name": "",
          "type": "uint256"
        }
      ],
      "name": "blogs",
      "outputs": [
        {
          "name": "blogger",
          "type": "address"
        },
        {
          "name": "data",
          "type": "string"
        }
      ],
      "payable": false,
      "stateMutability": "view",
      "type": "function"
    },
    {
      "inputs": [],
      "payable": false,
      "stateMutability": "nonpayable",
      "type": "constructor"
    },
    {
      "anonymous": false,
      "inputs": [
        {
          "indexed": false,
          "name": "blogger",
          "type": "address"
        },
        {
          "indexed": false,
          "name": "data",
          "type": "string"
        }
      ],
      "name": "BlogCreated",
      "type": "event"
    },
    {
      "anonymous": false,
      "inputs": [
        {
          "indexed": false,
          "name": "blog_id",
          "type": "uint256"
        },
        {
          "indexed": false,
          "name": "sender",
          "type": "address"
        },
        {
          "indexed": false,
          "name": "receiver",
          "type": "address"
        },
        {
          "indexed": false,
          "name": "amount",
          "type": "uint256"
        }
      ],
      "name": "CoffeBought",
      "type": "event"
    },
    {
      "constant": false,
      "inputs": [
        {
          "name": "_data",
          "type": "string"
        }
      ],
      "name": "createBlog",
      "outputs": [
        {
          "name": "",
          "type": "uint256"
        }
      ],
      "payable": false,
      "stateMutability": "nonpayable",
      "type": "function"
    },
    {
      "constant": false,
      "inputs": [
        {
          "name": "_blogId",
          "type": "uint256"
        }
      ],
      "name": "buyCoffee",
      "outputs": [
        {
          "name": "",
          "type": "bool"
        }
      ],
      "payable": true,
      "stateMutability": "payable",
      "type": "function"
    }
  ],
  "bytecode": "0x608060405234801561001057600080fd5b50610801806100206000396000f3fe60806040526004361061003f5760003560e01c806356c9493f14610044578063706936d41461009357806380f052d81461012d578063b03b4a2914610214575b600080fd5b34801561005057600080fd5b5061007d6004803603602081101561006757600080fd5b810190808035906020019092919050505061025a565b6040518082815260200191505060405180910390f35b34801561009f57600080fd5b50610117600480360360208110156100b657600080fd5b81019080803590602001906401000000008111156100d357600080fd5b8201836020820111156100e557600080fd5b8035906020019184600183028401116401000000008311171561010757600080fd5b9091929391929390505050610272565b6040518082815260200191505060405180910390f35b34801561013957600080fd5b506101666004803603602081101561015057600080fd5b810190808035906020019092919050505061041e565b604051808373ffffffffffffffffffffffffffffffffffffffff1673ffffffffffffffffffffffffffffffffffffffff16815260200180602001828103825283818151815260200191508051906020019080838360005b838110156101d85780820151818401526020810190506101bd565b50505050905090810190601f1680156102055780820380516001836020036101000a031916815260200191505b50935050505060405180910390f35b6102406004803603602081101561022a57600080fd5b8101908080359060200190929190505050610507565b604051808215151515815260200191505060405180910390f35b60016020528060005260406000206000915090505481565b60008060405180604001604052803373ffffffffffffffffffffffffffffffffffffffff16815260200185858080601f016020809104026020016040519081016040528093929190818152602001838380828437600081840152601f19601f820116905080830192505050505050508152509080600181540180825580915050906001820390600052602060002090600202016000909192909190915060008201518160000160006101000a81548173ffffffffffffffffffffffffffffffffffffffff021916908373ffffffffffffffffffffffffffffffffffffffff1602179055506020820151816001019080519060200190610372929190610730565b505050507fe401f4c025e7d0fdda3da5f2dc256362dd40b0e1b9712191f75791c231f3e3b6338484604051808473ffffffffffffffffffffffffffffffffffffffff1673ffffffffffffffffffffffffffffffffffffffff168152602001806020018281038252848482818152602001925080828437600081840152601f19601f82011690508083019250505094505050505060405180910390a1600160008054905003905092915050565b6000818154811061042b57fe5b90600052602060002090600202016000915090508060000160009054906101000a900473ffffffffffffffffffffffffffffffffffffffff1690806001018054600181600116156101000203166002900480601f0160208091040260200160405190810160405280929190818152602001828054600181600116156101000203166002900480156104fd5780601f106104d2576101008083540402835291602001916104fd565b820191906000526020600020905b8154815290600101906020018083116104e057829003601f168201915b5050505050905082565b600080341161051557600080fd5b816000818154811061052357fe5b906000526020600020906002020160000160009054906101000a900473ffffffffffffffffffffffffffffffffffffffff1673ffffffffffffffffffffffffffffffffffffffff163373ffffffffffffffffffffffffffffffffffffffff16141561058d57600080fd5b6000838154811061059a57fe5b906000526020600020906002020160000160009054906101000a900473ffffffffffffffffffffffffffffffffffffffff1673ffffffffffffffffffffffffffffffffffffffff166108fc349081150290604051600060405180830381858888f19350505050158015610611573d6000803e3d6000fd5b5060003460016000868152602001908152602001600020540190508060016000868152602001908152602001600020819055507f4da96a9ec6c62f416ed8e3f3d0589854efdebb6e96606ec4ab26475be2362ebf84336000878154811061067457fe5b906000526020600020906002020160000160009054906101000a900473ffffffffffffffffffffffffffffffffffffffff1634604051808581526020018473ffffffffffffffffffffffffffffffffffffffff1673ffffffffffffffffffffffffffffffffffffffff1681526020018373ffffffffffffffffffffffffffffffffffffffff1673ffffffffffffffffffffffffffffffffffffffff16815260200182815260200194505050505060405180910390a15050919050565b828054600181600116156101000203166002900490600052602060002090601f016020900481019282601f1061077157805160ff191683800117855561079f565b8280016001018555821561079f579182015b8281111561079e578251825591602001919060010190610783565b5b5090506107ac91906107b0565b5090565b6107d291905b808211156107ce5760008160009055506001016107b6565b5090565b9056fea165627a7a72305820890d4869c67014c1b982f44a92243d0a5cb7d8767064b2f8192f69db52007f240029",
  "source": "pragma solidity ^0.5.0;\r\n\r\n/**\r\n * @title Bounties\r\n * @author Joshua Cassidy- <joshua.cassidy@consensys.net>\r\n * @dev Simple smart contract which allows any user to issue a bounty in ETH linked to requirements stored in ipfs\r\n * which anyone can fufill by submitting the ipfs hash which contains evidence of their fufillment\r\n */\r\ncontract Blogs {\r\n\r\n  /*\r\n  * Enums\r\n  */\r\n\r\n//   enum BountyStatus { CREATED, ACCEPTED, CANCELLED }\r\n\r\n  /*\r\n  * Storage\r\n  */\r\n\r\n  Blog[] public blogs;\r\n//   Bounty[] public bounties;\r\n\r\n  mapping (uint=>uint) public support;\r\n\r\n  /*\r\n  * Structs\r\n  */\r\n\r\n  struct Blog {\r\n      address payable blogger;\r\n    //   uint deadline;\r\n      string data;\r\n    //   BountyStatus status;\r\n    //   uint amount; //in wei\r\n  }\r\n  \r\n//   struct Bounty {\r\n//       address payable issuer;\r\n//       uint deadline;\r\n//       string data;\r\n//       BountyStatus status;\r\n//       uint amount; //in wei\r\n//   }\r\n\r\n//   struct Fulfillment {\r\n//       bool accepted;\r\n//       address payable fulfiller;\r\n//       string data;\r\n//   }\r\n\r\n  /**\r\n   * @dev Contructor\r\n   */\r\n  constructor() public {}\r\n\r\n  /**\r\n  * @dev issueBounty(): instantiates a new bounty\r\n  * @param _data the requirements of the bounty\r\n  */\r\n  function createBlog(\r\n      string calldata _data\r\n  )\r\n      external\r\n    //   payable\r\n    //   hasValue()\r\n      returns (uint)\r\n  {\r\n      blogs.push(Blog(msg.sender, _data));\r\n      emit BlogCreated(msg.sender, _data);\r\n    //   emit BountyIssued(bounties.length - 1,msg.sender, msg.value, _data);\r\n      return (blogs.length - 1);\r\n  }\r\n  \r\n  function  buyCoffee(\r\n      uint _blogId\r\n      )\r\n      external\r\n      payable\r\n      hasValue()\r\n      notOwner(_blogId)\r\n      returns(bool)\r\n      {\r\n          blogs[_blogId].blogger.transfer(msg.value);\r\n          uint totalSupport = support[_blogId] + msg.value;\r\n          support[_blogId] = totalSupport;\r\n          emit CoffeBought(_blogId, msg.sender, blogs[_blogId].blogger, msg.value);\r\n      }\r\n\r\n  /**\r\n  * @dev fulfillBounty(): submit a fulfillment for the given bounty\r\n  * @param _bountyId the index of the bounty to be fufilled\r\n  * @param _data the ipfs hash which contains evidence of the fufillment\r\n  */\r\n//   function fulfillBounty(uint _bountyId, string memory _data)\r\n//     public\r\n//     bountyExists(_bountyId)\r\n//     notIssuer(_bountyId)\r\n//     hasStatus(_bountyId, BountyStatus.CREATED)\r\n//     isBeforeDeadline(_bountyId)\r\n//   {\r\n//     fulfillments[_bountyId].push(Fulfillment(false, msg.sender, _data));\r\n//     emit BountyFulfilled(_bountyId, msg.sender, (fulfillments[_bountyId].length - 1),_data);\r\n//   }\r\n\r\n  /**\r\n  * @dev acceptFulfillment(): accept a given fulfillment\r\n  * @param _bountyId the index of the bounty\r\n  * @param _fulfillmentId the index of the fulfillment being accepted\r\n  */\r\n//   function acceptFulfillment(uint _bountyId, uint _fulfillmentId)\r\n//       public\r\n//       bountyExists(_bountyId)\r\n//       fulfillmentExists(_bountyId,_fulfillmentId)\r\n//       onlyIssuer(_bountyId)\r\n//       hasStatus(_bountyId, BountyStatus.CREATED)\r\n//       fulfillmentNotYetAccepted(_bountyId, _fulfillmentId)\r\n//   {\r\n//       fulfillments[_bountyId][_fulfillmentId].accepted = true;\r\n//       bounties[_bountyId].status = BountyStatus.ACCEPTED;\r\n//       fulfillments[_bountyId][_fulfillmentId].fulfiller.transfer(bounties[_bountyId].amount);\r\n//       emit FulfillmentAccepted(_bountyId, bounties[_bountyId].issuer, fulfillments[_bountyId][_fulfillmentId].fulfiller, _fulfillmentId, bounties[_bountyId].amount);\r\n//   }\r\n\r\n  /** @dev cancelBounty(): cancels the bounty and send the funds back to the issuer\r\n  * @param _bountyId the index of the bounty\r\n  */\r\n//   function cancelBounty(uint _bountyId)\r\n//       public\r\n//       bountyExists(_bountyId)\r\n//       onlyIssuer(_bountyId)\r\n//       hasStatus(_bountyId, BountyStatus.CREATED)\r\n//   {\r\n//       bounties[_bountyId].status = BountyStatus.CANCELLED;\r\n//       bounties[_bountyId].issuer.transfer(bounties[_bountyId].amount);\r\n//       emit BountyCancelled(_bountyId, msg.sender, bounties[_bountyId].amount);\r\n//   }\r\n\r\n  /**\r\n  * Modifiers\r\n  */\r\n\r\n  modifier hasValue() {\r\n      require(msg.value > 0);\r\n      _;\r\n  }\r\n\r\n//   modifier bountyExists(uint _bountyId){\r\n//     require(_bountyId < bounties.length);\r\n//     _;\r\n//   }\r\n\r\n//   modifier fulfillmentExists(uint _bountyId, uint _fulfillmentId){\r\n//     require(_fulfillmentId < fulfillments[_bountyId].length);\r\n//     _;\r\n//   }\r\n\r\n//   modifier hasStatus(uint _bountyId, BountyStatus _desiredStatus) {\r\n//     require(bounties[_bountyId].status == _desiredStatus);\r\n//     _;\r\n//   }\r\n\r\n//   modifier onlyIssuer(uint _bountyId) {\r\n//       require(msg.sender == bounties[_bountyId].issuer);\r\n//       _;\r\n//   }\r\n\r\n  modifier notOwner(uint _blogId) {\r\n      require(msg.sender != blogs[_blogId].blogger);\r\n      _;\r\n  }\r\n\r\n//   modifier fulfillmentNotYetAccepted(uint _bountyId, uint _fulfillmentId) {\r\n//     require(fulfillments[_bountyId][_fulfillmentId].accepted == false);\r\n//     _;\r\n//   }\r\n\r\n//   modifier validateDeadline(uint _newDeadline) {\r\n//       require(_newDeadline > now);\r\n//       _;\r\n//   }\r\n\r\n//   modifier isBeforeDeadline(uint _bountyId) {\r\n//     require(now < bounties[_bountyId].deadline);\r\n//     _;\r\n//   }\r\n\r\n  /**\r\n  * Events\r\n  */\r\n  event BlogCreated(address blogger, string data);\r\n//   event BountyIssued(uint bounty_id, address issuer, uint amount, string data);\r\n//   event BountyFulfilled(uint bounty_id, address fulfiller, uint fulfillment_id, string data);\r\n//   event FulfillmentAccepted(uint bounty_id, address issuer, address fulfiller, uint indexed fulfillment_id, uint amount);\r\n  event CoffeBought(uint blog_id, address sender, address receiver, uint amount);\r\n//   event BountyCancelled(uint indexed bounty_id, address indexed issuer, uint amount);\r\n\r\n}",
  "sourcePath": "/mnt/c/Users/HP/crytpoCamp/ffinal/contracts/Blog.sol",
  "compiler": {
    "name": "solc",
    "version": "0.5.8+commit.23d335f2.Emscripten.clang"
  },
  "schemaVersion": "3.0.11",
  "updatedAt": "2019-07-29T15:59:55.272Z",
  "devdoc": {
    "author": "Joshua Cassidy- <joshua.cassidy@consensys.net>\r",
    "details": "Simple smart contract which allows any user to issue a bounty in ETH linked to requirements stored in ipfs\r which anyone can fufill by submitting the ipfs hash which contains evidence of their fufillment\r",
    "methods": {
      "constructor": {
        "details": "Contructor\r"
      },
      "createBlog(string)": {
        "details": "issueBounty(): instantiates a new bounty\r",
        "params": {
          "_data": "the requirements of the bounty\r"
        }
      }
    },
    "title": "Bounties\r"
  },
  "userdoc": {
    "methods": {}
  }
}