{
  "contractName": "Bounties",
  "abi": [
    {
      "constant": true,
      "inputs": [
        {
          "name": "",
          "type": "uint256"
        }
      ],
      "name": "bounties",
      "outputs": [
        {
          "name": "issuer",
          "type": "address"
        },
        {
          "name": "deadline",
          "type": "uint256"
        },
        {
          "name": "data",
          "type": "string"
        },
        {
          "name": "status",
          "type": "uint8"
        },
        {
          "name": "amount",
          "type": "uint256"
        }
      ],
      "payable": false,
      "stateMutability": "view",
      "type": "function"
    },
    {
      "inputs": [],
      "payable": false,
      "stateMutability": "nonpayable",
      "type": "constructor"
    },
    {
      "anonymous": false,
      "inputs": [
        {
          "indexed": false,
          "name": "bounty_id",
          "type": "uint256"
        },
        {
          "indexed": false,
          "name": "issuer",
          "type": "address"
        },
        {
          "indexed": false,
          "name": "amount",
          "type": "uint256"
        },
        {
          "indexed": false,
          "name": "data",
          "type": "string"
        }
      ],
      "name": "BountyIssued",
      "type": "event"
    },
    {
      "anonymous": false,
      "inputs": [
        {
          "indexed": false,
          "name": "bounty_id",
          "type": "uint256"
        },
        {
          "indexed": false,
          "name": "fulfiller",
          "type": "address"
        },
        {
          "indexed": false,
          "name": "fulfillment_id",
          "type": "uint256"
        },
        {
          "indexed": false,
          "name": "data",
          "type": "string"
        }
      ],
      "name": "BountyFulfilled",
      "type": "event"
    },
    {
      "anonymous": false,
      "inputs": [
        {
          "indexed": false,
          "name": "bounty_id",
          "type": "uint256"
        },
        {
          "indexed": false,
          "name": "issuer",
          "type": "address"
        },
        {
          "indexed": false,
          "name": "fulfiller",
          "type": "address"
        },
        {
          "indexed": true,
          "name": "fulfillment_id",
          "type": "uint256"
        },
        {
          "indexed": false,
          "name": "amount",
          "type": "uint256"
        }
      ],
      "name": "FulfillmentAccepted",
      "type": "event"
    },
    {
      "anonymous": false,
      "inputs": [
        {
          "indexed": true,
          "name": "bounty_id",
          "type": "uint256"
        },
        {
          "indexed": true,
          "name": "issuer",
          "type": "address"
        },
        {
          "indexed": false,
          "name": "amount",
          "type": "uint256"
        }
      ],
      "name": "BountyCancelled",
      "type": "event"
    },
    {
      "constant": false,
      "inputs": [
        {
          "name": "_data",
          "type": "string"
        },
        {
          "name": "_deadline",
          "type": "uint64"
        }
      ],
      "name": "issueBounty",
      "outputs": [
        {
          "name": "",
          "type": "uint256"
        }
      ],
      "payable": true,
      "stateMutability": "payable",
      "type": "function"
    },
    {
      "constant": false,
      "inputs": [
        {
          "name": "_bountyId",
          "type": "uint256"
        },
        {
          "name": "_data",
          "type": "string"
        }
      ],
      "name": "fulfillBounty",
      "outputs": [],
      "payable": false,
      "stateMutability": "nonpayable",
      "type": "function"
    },
    {
      "constant": false,
      "inputs": [
        {
          "name": "_bountyId",
          "type": "uint256"
        },
        {
          "name": "_fulfillmentId",
          "type": "uint256"
        }
      ],
      "name": "acceptFulfillment",
      "outputs": [],
      "payable": false,
      "stateMutability": "nonpayable",
      "type": "function"
    },
    {
      "constant": false,
      "inputs": [
        {
          "name": "_bountyId",
          "type": "uint256"
        }
      ],
      "name": "cancelBounty",
      "outputs": [],
      "payable": false,
      "stateMutability": "nonpayable",
      "type": "function"
    }
  ],
  "bytecode": "0x608060405234801561001057600080fd5b50611089806100206000396000f3fe60806040526004361061004a5760003560e01c80631e688c141461004f578063a372625314610121578063d9583497146101c2578063dc2f874414610207578063e5e5dff114610311575b600080fd5b34801561005b57600080fd5b5061011f6004803603604081101561007257600080fd5b81019080803590602001909291908035906020019064010000000081111561009957600080fd5b8201836020820111156100ab57600080fd5b803590602001918460018302840111640100000000831117156100cd57600080fd5b91908080601f016020809104026020016040519081016040528093929190818152602001838380828437600081840152601f19601f82011690508083019250505050505050919291929050505061034c565b005b6101ac6004803603604081101561013757600080fd5b810190808035906020019064010000000081111561015457600080fd5b82018360208201111561016657600080fd5b8035906020019184600183028401116401000000008311171561018857600080fd5b9091929391929390803567ffffffffffffffff16906020019092919050505061064b565b6040518082815260200191505060405180910390f35b3480156101ce57600080fd5b50610205600480360360408110156101e557600080fd5b81019080803590602001909291908035906020019092919050505061089a565b005b34801561021357600080fd5b506102406004803603602081101561022a57600080fd5b8101908080359060200190929190505050610c80565b604051808673ffffffffffffffffffffffffffffffffffffffff1673ffffffffffffffffffffffffffffffffffffffff1681526020018581526020018060200184600281111561028c57fe5b60ff168152602001838152602001828103825285818151815260200191508051906020019080838360005b838110156102d25780820151818401526020810190506102b7565b50505050905090810190601f1680156102ff5780820380516001836020036101000a031916815260200191505b50965050505050505060405180910390f35b34801561031d57600080fd5b5061034a6004803603602081101561033457600080fd5b8101908080359060200190929190505050610d88565b005b81600080549050811061035e57600080fd5b826000818154811061036c57fe5b906000526020600020906005020160000160009054906101000a900473ffffffffffffffffffffffffffffffffffffffff1673ffffffffffffffffffffffffffffffffffffffff163373ffffffffffffffffffffffffffffffffffffffff1614156103d657600080fd5b8360008060028111156103e557fe5b600083815481106103f257fe5b906000526020600020906005020160030160009054906101000a900460ff16600281111561041c57fe5b1461042657600080fd5b856000818154811061043457fe5b906000526020600020906005020160010154421061045157600080fd5b6001600088815260200190815260200160002060405180606001604052806000151581526020013373ffffffffffffffffffffffffffffffffffffffff168152602001888152509080600181540180825580915050906001820390600052602060002090600202016000909192909190915060008201518160000160006101000a81548160ff02191690831515021790555060208201518160000160016101000a81548173ffffffffffffffffffffffffffffffffffffffff021916908373ffffffffffffffffffffffffffffffffffffffff1602179055506040820151816001019080519060200190610546929190610fb8565b505050507fc4f0fe8da4c31907c5e6741ec9f6c2761aef2c6f0aa407d1f22b1420932631b3873360018060008c8152602001908152602001600020805490500389604051808581526020018473ffffffffffffffffffffffffffffffffffffffff1673ffffffffffffffffffffffffffffffffffffffff16815260200183815260200180602001828103825283818151815260200191508051906020019080838360005b838110156106055780820151818401526020810190506105ea565b50505050905090810190601f1680156106325780820380516001836020036101000a031916815260200191505b509550505050505060405180910390a150505050505050565b600080341161065957600080fd5b8167ffffffffffffffff1642811161067057600080fd5b60006040518060a001604052803373ffffffffffffffffffffffffffffffffffffffff1681526020018567ffffffffffffffff16815260200187878080601f016020809104026020016040519081016040528093929190818152602001838380828437600081840152601f19601f8201169050808301925050505050505081526020016000600281111561070057fe5b8152602001348152509080600181540180825580915050906001820390600052602060002090600502016000909192909190915060008201518160000160006101000a81548173ffffffffffffffffffffffffffffffffffffffff021916908373ffffffffffffffffffffffffffffffffffffffff1602179055506020820151816001015560408201518160020190805190602001906107a1929190610fb8565b5060608201518160030160006101000a81548160ff021916908360028111156107c657fe5b0217905550608082015181600401555050507fba1576d8891bfe57a45ac4b986d4a4aa912c62f44771d4eec8ab2ce06e3be5b760016000805490500333348888604051808681526020018573ffffffffffffffffffffffffffffffffffffffff1673ffffffffffffffffffffffffffffffffffffffff168152602001848152602001806020018281038252848482818152602001925080828437600081840152601f19601f820116905080830192505050965050505050505060405180910390a16001600080549050039150509392505050565b8160008054905081106108ac57600080fd5b8282600160008381526020019081526020016000208054905081106108d057600080fd5b84600081815481106108de57fe5b906000526020600020906005020160000160009054906101000a900473ffffffffffffffffffffffffffffffffffffffff1673ffffffffffffffffffffffffffffffffffffffff163373ffffffffffffffffffffffffffffffffffffffff161461094757600080fd5b85600080600281111561095657fe5b6000838154811061096357fe5b906000526020600020906005020160030160009054906101000a900460ff16600281111561098d57fe5b1461099757600080fd5b8787600015156001600084815260200190815260200160002082815481106109bb57fe5b906000526020600020906002020160000160009054906101000a900460ff161515146109e657600080fd5b60018060008c81526020019081526020016000208a81548110610a0557fe5b906000526020600020906002020160000160006101000a81548160ff021916908315150217905550600160008b81548110610a3c57fe5b906000526020600020906005020160030160006101000a81548160ff02191690836002811115610a6857fe5b0217905550600160008b81526020019081526020016000208981548110610a8b57fe5b906000526020600020906002020160000160019054906101000a900473ffffffffffffffffffffffffffffffffffffffff1673ffffffffffffffffffffffffffffffffffffffff166108fc60008c81548110610ae357fe5b9060005260206000209060050201600401549081150290604051600060405180830381858888f19350505050158015610b20573d6000803e3d6000fd5b50887f85d45a4e923ea9b336558bcd434d3f474644affd5df115bba14b63e75425bde48b60008d81548110610b5157fe5b906000526020600020906005020160000160009054906101000a900473ffffffffffffffffffffffffffffffffffffffff16600160008f81526020019081526020016000208d81548110610ba157fe5b906000526020600020906002020160000160019054906101000a900473ffffffffffffffffffffffffffffffffffffffff1660008f81548110610be057fe5b906000526020600020906005020160040154604051808581526020018473ffffffffffffffffffffffffffffffffffffffff1673ffffffffffffffffffffffffffffffffffffffff1681526020018373ffffffffffffffffffffffffffffffffffffffff1673ffffffffffffffffffffffffffffffffffffffff16815260200182815260200194505050505060405180910390a250505050505050505050565b60008181548110610c8d57fe5b90600052602060002090600502016000915090508060000160009054906101000a900473ffffffffffffffffffffffffffffffffffffffff1690806001015490806002018054600181600116156101000203166002900480601f016020809104026020016040519081016040528092919081815260200182805460018160011615610100020316600290048015610d655780601f10610d3a57610100808354040283529160200191610d65565b820191906000526020600020905b815481529060010190602001808311610d4857829003601f168201915b5050505050908060030160009054906101000a900460ff16908060040154905085565b806000805490508110610d9a57600080fd5b8160008181548110610da857fe5b906000526020600020906005020160000160009054906101000a900473ffffffffffffffffffffffffffffffffffffffff1673ffffffffffffffffffffffffffffffffffffffff163373ffffffffffffffffffffffffffffffffffffffff1614610e1157600080fd5b826000806002811115610e2057fe5b60008381548110610e2d57fe5b906000526020600020906005020160030160009054906101000a900460ff166002811115610e5757fe5b14610e6157600080fd5b600260008681548110610e7057fe5b906000526020600020906005020160030160006101000a81548160ff02191690836002811115610e9c57fe5b021790555060008581548110610eae57fe5b906000526020600020906005020160000160009054906101000a900473ffffffffffffffffffffffffffffffffffffffff1673ffffffffffffffffffffffffffffffffffffffff166108fc60008781548110610f0657fe5b9060005260206000209060050201600401549081150290604051600060405180830381858888f19350505050158015610f43573d6000803e3d6000fd5b503373ffffffffffffffffffffffffffffffffffffffff16857fb9670bf4f2273686f771c9ab65309436df5ed75afa63eefec8b67640d8bcf72c60008881548110610f8a57fe5b9060005260206000209060050201600401546040518082815260200191505060405180910390a35050505050565b828054600181600116156101000203166002900490600052602060002090601f016020900481019282601f10610ff957805160ff1916838001178555611027565b82800160010185558215611027579182015b8281111561102657825182559160200191906001019061100b565b5b5090506110349190611038565b5090565b61105a91905b8082111561105657600081600090555060010161103e565b5090565b9056fea165627a7a7230582049412e77e0a13170d7b8299755784465588917e6b8c0cc9bdececda2451ae42c0029",
  "source": "pragma solidity ^0.5.0;\r\n\r\n/**\r\n * @title Bounties\r\n * @author Joshua Cassidy- <joshua.cassidy@consensys.net>\r\n * @dev Simple smart contract which allows any user to issue a bounty in ETH linked to requirements stored in ipfs\r\n * which anyone can fufill by submitting the ipfs hash which contains evidence of their fufillment\r\n */\r\ncontract Bounties {\r\n\r\n  /*\r\n  * Enums\r\n  */\r\n\r\n  enum BountyStatus { CREATED, ACCEPTED, CANCELLED }\r\n\r\n  /*\r\n  * Storage\r\n  */\r\n\r\n  Bounty[] public bounties;\r\n\r\n  mapping(uint=>Fulfillment[]) fulfillments;\r\n\r\n  /*\r\n  * Structs\r\n  */\r\n\r\n  struct Bounty {\r\n      address payable issuer;\r\n      uint deadline;\r\n      string data;\r\n      BountyStatus status;\r\n      uint amount; //in wei\r\n  }\r\n\r\n  struct Fulfillment {\r\n      bool accepted;\r\n      address payable fulfiller;\r\n      string data;\r\n  }\r\n\r\n  /**\r\n   * @dev Contructor\r\n   */\r\n  constructor() public {}\r\n\r\n  /**\r\n  * @dev issueBounty(): instantiates a new bounty\r\n  * @param _deadline the unix timestamp after which fulfillments will no longer be accepted\r\n  * @param _data the requirements of the bounty\r\n  */\r\n  function issueBounty(\r\n      string calldata _data,\r\n      uint64 _deadline\r\n  )\r\n      external\r\n      payable\r\n      hasValue()\r\n      validateDeadline(_deadline)\r\n      returns (uint)\r\n  {\r\n      bounties.push(Bounty(msg.sender, _deadline, _data, BountyStatus.CREATED, msg.value));\r\n      emit BountyIssued(bounties.length - 1,msg.sender, msg.value, _data);\r\n      return (bounties.length - 1);\r\n  }\r\n\r\n  /**\r\n  * @dev fulfillBounty(): submit a fulfillment for the given bounty\r\n  * @param _bountyId the index of the bounty to be fufilled\r\n  * @param _data the ipfs hash which contains evidence of the fufillment\r\n  */\r\n  function fulfillBounty(uint _bountyId, string memory _data)\r\n    public\r\n    bountyExists(_bountyId)\r\n    notIssuer(_bountyId)\r\n    hasStatus(_bountyId, BountyStatus.CREATED)\r\n    isBeforeDeadline(_bountyId)\r\n  {\r\n    fulfillments[_bountyId].push(Fulfillment(false, msg.sender, _data));\r\n    emit BountyFulfilled(_bountyId, msg.sender, (fulfillments[_bountyId].length - 1),_data);\r\n  }\r\n\r\n  /**\r\n  * @dev acceptFulfillment(): accept a given fulfillment\r\n  * @param _bountyId the index of the bounty\r\n  * @param _fulfillmentId the index of the fulfillment being accepted\r\n  */\r\n  function acceptFulfillment(uint _bountyId, uint _fulfillmentId)\r\n      public\r\n      bountyExists(_bountyId)\r\n      fulfillmentExists(_bountyId,_fulfillmentId)\r\n      onlyIssuer(_bountyId)\r\n      hasStatus(_bountyId, BountyStatus.CREATED)\r\n      fulfillmentNotYetAccepted(_bountyId, _fulfillmentId)\r\n  {\r\n      fulfillments[_bountyId][_fulfillmentId].accepted = true;\r\n      bounties[_bountyId].status = BountyStatus.ACCEPTED;\r\n      fulfillments[_bountyId][_fulfillmentId].fulfiller.transfer(bounties[_bountyId].amount);\r\n      emit FulfillmentAccepted(_bountyId, bounties[_bountyId].issuer, fulfillments[_bountyId][_fulfillmentId].fulfiller, _fulfillmentId, bounties[_bountyId].amount);\r\n  }\r\n\r\n  /** @dev cancelBounty(): cancels the bounty and send the funds back to the issuer\r\n  * @param _bountyId the index of the bounty\r\n  */\r\n  function cancelBounty(uint _bountyId)\r\n      public\r\n      bountyExists(_bountyId)\r\n      onlyIssuer(_bountyId)\r\n      hasStatus(_bountyId, BountyStatus.CREATED)\r\n  {\r\n      bounties[_bountyId].status = BountyStatus.CANCELLED;\r\n      bounties[_bountyId].issuer.transfer(bounties[_bountyId].amount);\r\n      emit BountyCancelled(_bountyId, msg.sender, bounties[_bountyId].amount);\r\n  }\r\n\r\n  /**\r\n  * Modifiers\r\n  */\r\n\r\n  modifier hasValue() {\r\n      require(msg.value > 0);\r\n      _;\r\n  }\r\n\r\n  modifier bountyExists(uint _bountyId){\r\n    require(_bountyId < bounties.length);\r\n    _;\r\n  }\r\n\r\n  modifier fulfillmentExists(uint _bountyId, uint _fulfillmentId){\r\n    require(_fulfillmentId < fulfillments[_bountyId].length);\r\n    _;\r\n  }\r\n\r\n  modifier hasStatus(uint _bountyId, BountyStatus _desiredStatus) {\r\n    require(bounties[_bountyId].status == _desiredStatus);\r\n    _;\r\n  }\r\n\r\n  modifier onlyIssuer(uint _bountyId) {\r\n      require(msg.sender == bounties[_bountyId].issuer);\r\n      _;\r\n  }\r\n\r\n  modifier notIssuer(uint _bountyId) {\r\n      require(msg.sender != bounties[_bountyId].issuer);\r\n      _;\r\n  }\r\n\r\n  modifier fulfillmentNotYetAccepted(uint _bountyId, uint _fulfillmentId) {\r\n    require(fulfillments[_bountyId][_fulfillmentId].accepted == false);\r\n    _;\r\n  }\r\n\r\n  modifier validateDeadline(uint _newDeadline) {\r\n      require(_newDeadline > now);\r\n      _;\r\n  }\r\n\r\n  modifier isBeforeDeadline(uint _bountyId) {\r\n    require(now < bounties[_bountyId].deadline);\r\n    _;\r\n  }\r\n\r\n  /**\r\n  * Events\r\n  */\r\n  event BountyIssued(uint bounty_id, address issuer, uint amount, string data);\r\n  event BountyFulfilled(uint bounty_id, address fulfiller, uint fulfillment_id, string data);\r\n  event FulfillmentAccepted(uint bounty_id, address issuer, address fulfiller, uint indexed fulfillment_id, uint amount);\r\n  event BountyCancelled(uint indexed bounty_id, address indexed issuer, uint amount);\r\n\r\n}",
  "sourcePath": "/mnt/c/Users/HP/crytpoCamp/ffinal/contracts/Bounties.sol",
  "compiler": {
    "name": "solc",
    "version": "0.5.8+commit.23d335f2.Emscripten.clang"
  },
  "schemaVersion": "3.0.11",
  "updatedAt": "2019-07-28T21:12:11.665Z",
  "devdoc": {
    "author": "Joshua Cassidy- <joshua.cassidy@consensys.net>\r",
    "details": "Simple smart contract which allows any user to issue a bounty in ETH linked to requirements stored in ipfs\r which anyone can fufill by submitting the ipfs hash which contains evidence of their fufillment\r",
    "methods": {
      "acceptFulfillment(uint256,uint256)": {
        "details": "acceptFulfillment(): accept a given fulfillment\r",
        "params": {
          "_bountyId": "the index of the bounty\r",
          "_fulfillmentId": "the index of the fulfillment being accepted\r"
        }
      },
      "cancelBounty(uint256)": {
        "details": "cancelBounty(): cancels the bounty and send the funds back to the issuer\r",
        "params": {
          "_bountyId": "the index of the bounty\r"
        }
      },
      "constructor": {
        "details": "Contructor\r"
      },
      "fulfillBounty(uint256,string)": {
        "details": "fulfillBounty(): submit a fulfillment for the given bounty\r",
        "params": {
          "_bountyId": "the index of the bounty to be fufilled\r",
          "_data": "the ipfs hash which contains evidence of the fufillment\r"
        }
      },
      "issueBounty(string,uint64)": {
        "details": "issueBounty(): instantiates a new bounty\r",
        "params": {
          "_data": "the requirements of the bounty\r",
          "_deadline": "the unix timestamp after which fulfillments will no longer be accepted\r"
        }
      }
    },
    "title": "Bounties\r"
  },
  "userdoc": {
    "methods": {}
  }
}